{
  "transactions": [
    {
      "hash": "0xee611e82bffd1d11b6d73d5676fd5630ce11ef11a67181847c142fe9da6d6dc6",
      "transactionType": "CREATE",
      "contractName": "FeesAccumulator",
      "contractAddress": "0x9c54e82Ef8752B8f573390a6c36893e7Eaca234c",
      "function": null,
      "arguments": [
        "0x67A7B1c60363CF8a4664e21CC89C26224620214E",
        "0xA18f56E8913cF4a201FBE287825b095693C21775"
      ],
      "transaction": {
        "type": "0x00",
        "from": "0x0f3bf5c241b6625c0fa781ed137fde6786b2e66f",
        "gas": "0x2021a8",
        "value": "0x0",
        "data": "0x60806040523480156200001157600080fd5b50604051620020493803806200204983398101604081905262000034916200058a565b6001600160a01b0382166200007b5760405162461bcd60e51b815260206004820152600860248201526710afb937baba32b960c11b60448201526064015b60405180910390fd5b600380546001600160a01b038085166001600160a01b03199283161790925560028054928416929091168217905560408051637839b2c560e11b8152905163f073658a916004808201926020929091908290030181865afa158015620000e5573d6000803e3d6000fd5b505050506040513d601f19601f820116820180604052508101906200010b9190620005c9565b600180546001600160a01b0319166001600160a01b0392909216919091179055620001556000805160206200200983398151915260008051602062002029833981519152620001ce565b620001907fd8642e325ff063c2569dc38c8c7b3ded13200dfc2e08ea8505cf844ddec6fd7f60008051602062002009833981519152620001ce565b620001ab600080516020620020298339815191523362000219565b620001c6600080516020620020098339815191523362000229565b505062000763565b600082815260208190526040808220600101805490849055905190918391839186917fbd79b86ffe0ab8e8776151514217cd7cacd52c909f66475c3af44e129f0b00ff9190a4505050565b62000225828262000257565b5050565b6000828152602081905260409020600101546200024681620002f7565b62000252838362000257565b505050565b6000828152602081815260408083206001600160a01b038516845290915290205460ff1662000225576000828152602081815260408083206001600160a01b03851684529091529020805460ff19166001179055620002b33390565b6001600160a01b0316816001600160a01b0316837f2f8788117e7eff1d82e926ec794901d17c78024a50270940304540a733656f0d60405160405180910390a45050565b62000303813362000306565b50565b6000828152602081815260408083206001600160a01b038516845290915290205460ff16620002255762000345816200039660201b62000cff1760201c565b6200035b83602062000d11620003b4821b17811c565b6040516020016200036e9291906200061c565b60408051601f198184030181529082905262461bcd60e51b8252620000729160040162000695565b6060620003ae6001600160a01b0383166014620003b4565b92915050565b60606000620003c5836002620006e0565b620003d290600262000702565b6001600160401b03811115620003ec57620003ec6200071d565b6040519080825280601f01601f19166020018201604052801562000417576020820181803683370190505b509050600360fc1b8160008151811062000435576200043562000733565b60200101906001600160f81b031916908160001a905350600f60fb1b8160018151811062000467576200046762000733565b60200101906001600160f81b031916908160001a90535060006200048d846002620006e0565b6200049a90600162000702565b90505b60018111156200051c576f181899199a1a9b1b9c1cb0b131b232b360811b85600f1660108110620004d257620004d262000733565b1a60f81b828281518110620004eb57620004eb62000733565b60200101906001600160f81b031916908160001a90535060049490941c93620005148162000749565b90506200049d565b5083156200056d5760405162461bcd60e51b815260206004820181905260248201527f537472696e67733a20686578206c656e67746820696e73756666696369656e74604482015260640162000072565b9392505050565b6001600160a01b03811681146200030357600080fd5b600080604083850312156200059e57600080fd5b8251620005ab8162000574565b6020840151909250620005be8162000574565b809150509250929050565b600060208284031215620005dc57600080fd5b81516200056d8162000574565b60005b8381101562000606578181015183820152602001620005ec565b8381111562000616576000848401525b50505050565b7f416363657373436f6e74726f6c3a206163636f756e742000000000000000000081526000835162000656816017850160208801620005e9565b7001034b99036b4b9b9b4b733903937b6329607d1b601791840191820152835162000689816028840160208801620005e9565b01602801949350505050565b6020815260008251806020840152620006b6816040850160208701620005e9565b601f01601f19169190910160400192915050565b634e487b7160e01b600052601160045260246000fd5b6000816000190483118215151615620006fd57620006fd620006ca565b500290565b60008219821115620007185762000718620006ca565b500190565b634e487b7160e01b600052604160045260246000fd5b634e487b7160e01b600052603260045260246000fd5b6000816200075b576200075b620006ca565b506000190190565b61189680620007736000396000f3fe608060405234801561001057600080fd5b506004361061014d5760003560e01c806375b238fc116100c3578063d547741f1161007c578063d547741f1461035e578063d927e57e14610371578063e58378bb14610398578063e8c3d001146103ad578063f073658a146103d8578063f887ea40146103eb57600080fd5b806375b238fc146102bb57806391d14854146102e25780639cfdbfc8146102f55780639e4c050614610318578063a217fddf14610343578063c0d786551461034b57600080fd5b8063248a9ca311610115578063248a9ca3146101ea5780632f2ff15d1461021b57806336568abe1461022e578063480b821b14610241578063555478331461029557806364b1d832146102a857600080fd5b806301ffc9a71461015257806302dda6051461017a5780630bc18aee1461018f5780630fabcda5146101a257806311351fbb146101b5575b600080fd5b6101656101603660046112c4565b6103fe565b60405190151581526020015b60405180910390f35b61018d610188366004611303565b610435565b005b61018d61019d36600461134e565b6104bc565b61018d6101b036600461134e565b610537565b6101d86101c336600461138d565b60066020526000908152604090205460ff1681565b60405160ff9091168152602001610171565b61020d6101f83660046113aa565b60009081526020819052604090206001015490565b604051908152602001610171565b61018d6102293660046113c3565b6105b2565b61018d61023c3660046113c3565b6105dc565b61027561024f36600461138d565b600460205260009081526040902080546001909101546001600160a01b03918216911682565b604080516001600160a01b03938416815292909116602083015201610171565b61018d6102a336600461138d565b61065a565b61018d6102b63660046113e8565b61069c565b61020d7fa49807205ce4d355092ef5a8a18f56e8913cf4a201fbe287825b095693c2177581565b6101656102f03660046113c3565b610c35565b6101d861030336600461138d565b60076020526000908152604090205460ff1681565b61020d61032636600461146d565b600560209081526000928352604080842090915290825290205481565b61020d600081565b61018d61035936600461138d565b610c5e565b61018d61036c3660046113c3565b610cda565b61020d7fd8642e325ff063c2569dc38c8c7b3ded13200dfc2e08ea8505cf844ddec6fd7f81565b61020d60008051602061184183398151915281565b6002546103c0906001600160a01b031681565b6040516001600160a01b039091168152602001610171565b6001546103c0906001600160a01b031681565b6003546103c0906001600160a01b031681565b60006001600160e01b03198216637965db0b60e01b148061042f57506301ffc9a760e01b6001600160e01b03198316145b92915050565b60008051602061184183398151915261044d81610eb4565b836001600160a01b03811661047d5760405162461bcd60e51b81526004016104749061149b565b60405180910390fd5b50506001600160a01b03928316600090815260046020526040902080549284166001600160a01b03199384161781556001018054919093169116179055565b6000805160206118418339815191526104d481610eb4565b826001600160a01b0381166104fb5760405162461bcd60e51b81526004016104749061149b565b6105068360016114d6565b6001600160a01b03949094166000908152600760205260409020805460ff191660ff90951694909417909355505050565b60008051602061184183398151915261054f81610eb4565b826001600160a01b0381166105765760405162461bcd60e51b81526004016104749061149b565b6105818360016114d6565b6001600160a01b03949094166000908152600660205260409020805460ff191660ff90951694909417909355505050565b6000828152602081905260409020600101546105cd81610eb4565b6105d78383610ec1565b505050565b6001600160a01b038116331461064c5760405162461bcd60e51b815260206004820152602f60248201527f416363657373436f6e74726f6c3a2063616e206f6e6c792072656e6f756e636560448201526e103937b632b9903337b91039b2b63360891b6064820152608401610474565b6106568282610f45565b5050565b60008051602061184183398151915261067281610eb4565b6106567fd8642e325ff063c2569dc38c8c7b3ded13200dfc2e08ea8505cf844ddec6fd7f836105b2565b7fd8642e325ff063c2569dc38c8c7b3ded13200dfc2e08ea8505cf844ddec6fd7f6106c681610eb4565b6040516370a0823160e01b81523060048201526000906001600160a01b038616906370a0823190602401602060405180830381865afa15801561070d573d6000803e3d6000fd5b505050506040513d601f19601f8201168201806040525081019061073191906114fb565b90506000856001600160a01b031663313ce5676040518163ffffffff1660e01b8152600401602060405180830381865afa158015610773573d6000803e3d6000fd5b505050506040513d601f19601f8201168201806040525081019061079791906114fb565b9050600082116107d95760405162461bcd60e51b815260206004820152600d60248201526c21746f74616c42616c616e636560981b6044820152606401610474565b6001546001600160a01b038088169163095ea7b391166107fa600286611514565b6040516001600160e01b031960e085901b1681526001600160a01b03909216600483015260248201526044016020604051808303816000875af1158015610845573d6000803e3d6000fd5b505050506040513d601f19601f820116820180604052508101906108699190611536565b506000610877876001610faa565b9050600061088683600a61163c565b610891600286611514565b6108a390670de0b6b3a7640000611648565b6108ad9190611514565b600154600254604051630dce2a1160e01b81526001600160a01b0391821660048201526024810184905260448101869052600060648201528b821660848201529293501690630dce2a119060a401600060405180830381600087803b15801561091557600080fd5b505af1158015610929573d6000803e3d6000fd5b505050506000600160009054906101000a90046001600160a01b03166001600160a01b031663c0dd21d56040518163ffffffff1660e01b8152600401602060405180830381865afa158015610982573d6000803e3d6000fd5b505050506040513d601f19601f820116820180604052508101906109a69190611667565b905060006109b5600287611514565b6109bf9087611684565b9050809250816001600160a01b03168a6001600160a01b031614610ada576000829050826001600160a01b031663313ce5676040518163ffffffff1660e01b8152600401602060405180830381865afa158015610a20573d6000803e3d6000fd5b505050506040513d601f19601f82011682018060405250810190610a4491906114fb565b60035460405163095ea7b360e01b81526001600160a01b039182166004820152602481018590529197508c169063095ea7b3906044016020604051808303816000875af1158015610a99573d6000803e3d6000fd5b505050506040513d601f19601f82011682018060405250810190610abd9190611536565b50600354610ad6906001600160a01b0316828c8c61111b565b9350505b6001600160a01b038a81166000908152600460208181526040928390208351808501855281548616808252600190920154861692810192909252925163095ea7b360e01b81529182019290925260248101869052909184169063095ea7b3906044016020604051808303816000875af1158015610b5b573d6000803e3d6000fd5b505050506040513d601f19601f82011682018060405250810190610b7f9190611536565b50610b8b86600a61163c565b610b9d85670de0b6b3a7640000611648565b610ba79190611514565b81516020830151604051630dce2a1160e01b81526001600160a01b03918216600482015260248101849052600060448201819052606482015286821660848201529296501690630dce2a119060a401600060405180830381600087803b158015610c1057600080fd5b505af1158015610c24573d6000803e3d6000fd5b505050505050505050505050505050565b6000918252602082815260408084206001600160a01b0393909316845291905290205460ff1690565b600080516020611841833981519152610c7681610eb4565b6001600160a01b038216610cb75760405162461bcd60e51b815260206004820152600860248201526710afb937baba32b960c11b6044820152606401610474565b50600380546001600160a01b0319166001600160a01b0392909216919091179055565b600082815260208190526040902060010154610cf581610eb4565b6105d78383610f45565b606061042f6001600160a01b03831660145b60606000610d20836002611648565b610d2b90600261169b565b67ffffffffffffffff811115610d4357610d436116b3565b6040519080825280601f01601f191660200182016040528015610d6d576020820181803683370190505b509050600360fc1b81600081518110610d8857610d886116c9565b60200101906001600160f81b031916908160001a905350600f60fb1b81600181518110610db757610db76116c9565b60200101906001600160f81b031916908160001a9053506000610ddb846002611648565b610de690600161169b565b90505b6001811115610e5e576f181899199a1a9b1b9c1cb0b131b232b360811b85600f1660108110610e1a57610e1a6116c9565b1a60f81b828281518110610e3057610e306116c9565b60200101906001600160f81b031916908160001a90535060049490941c93610e57816116df565b9050610de9565b508315610ead5760405162461bcd60e51b815260206004820181905260248201527f537472696e67733a20686578206c656e67746820696e73756666696369656e746044820152606401610474565b9392505050565b610ebe813361126b565b50565b610ecb8282610c35565b610656576000828152602081815260408083206001600160a01b03851684529091529020805460ff19166001179055610f013390565b6001600160a01b0316816001600160a01b0316837f2f8788117e7eff1d82e926ec794901d17c78024a50270940304540a733656f0d60405160405180910390a45050565b610f4f8282610c35565b15610656576000828152602081815260408083206001600160a01b0385168085529252808320805460ff1916905551339285917ff6391f5c32d9c69d2a47ea670b442974b53935d1edc7fd64eb21e047a839171b9190a45050565b60006001600160a01b038316610fd25760405162461bcd60e51b81526004016104749061149b565b811561107e576001600160a01b03831660009081526006602052604081205460ff16900361104c5760405162461bcd60e51b815260206004820152602160248201527f436f6c6c61746572616c206e6f7420737570706f7274656420666f72207573646044820152601b60fa1b6064820152608401610474565b6001600160a01b0383166000908152600660205260409020546110749060019060ff166116f6565b60ff16905061042f565b6001600160a01b03831660009081526007602052604081205460ff1690036110f35760405162461bcd60e51b815260206004820152602260248201527f436f6c6c61746572616c206e6f7420737570706f7274656420666f722073796e6044820152610e8d60f31b6064820152608401610474565b6001600160a01b0383166000908152600760205260409020546110749060019060ff166116f6565b6040516370a0823160e01b815230600482015260009081906001600160a01b038616906370a0823190602401602060405180830381865afa158015611164573d6000803e3d6000fd5b505050506040513d601f19601f8201168201806040525081019061118891906114fb565b9050856001600160a01b031684846040516111a4929190611719565b6000604051808303816000865af19150503d80600081146111e1576040519150601f19603f3d011682016040523d82523d6000602084013e6111e6565b606091505b50506040516370a0823160e01b8152306004820152600091506001600160a01b038716906370a0823190602401602060405180830381865afa158015611230573d6000803e3d6000fd5b505050506040513d601f19601f8201168201806040525081019061125491906114fb565b90506112608282611729565b979650505050505050565b6112758282610c35565b6106565761128281610cff565b61128d836020610d11565b60405160200161129e929190611798565b60408051601f198184030181529082905262461bcd60e51b82526104749160040161180d565b6000602082840312156112d657600080fd5b81356001600160e01b031981168114610ead57600080fd5b6001600160a01b0381168114610ebe57600080fd5b60008060006060848603121561131857600080fd5b8335611323816112ee565b92506020840135611333816112ee565b91506040840135611343816112ee565b809150509250925092565b6000806040838503121561136157600080fd5b823561136c816112ee565b9150602083013560ff8116811461138257600080fd5b809150509250929050565b60006020828403121561139f57600080fd5b8135610ead816112ee565b6000602082840312156113bc57600080fd5b5035919050565b600080604083850312156113d657600080fd5b823591506020830135611382816112ee565b6000806000604084860312156113fd57600080fd5b8335611408816112ee565b9250602084013567ffffffffffffffff8082111561142557600080fd5b818601915086601f83011261143957600080fd5b81358181111561144857600080fd5b87602082850101111561145a57600080fd5b6020830194508093505050509250925092565b6000806040838503121561148057600080fd5b823561148b816112ee565b91506020830135611382816112ee565b6020808252600b908201526a0858dbdb1b185d195c985b60aa1b604082015260600190565b634e487b7160e01b600052601160045260246000fd5b600060ff821660ff84168060ff038211156114f3576114f36114c0565b019392505050565b60006020828403121561150d57600080fd5b5051919050565b60008261153157634e487b7160e01b600052601260045260246000fd5b500490565b60006020828403121561154857600080fd5b81518015158114610ead57600080fd5b600181815b80851115611593578160001904821115611579576115796114c0565b8085161561158657918102915b93841c939080029061155d565b509250929050565b6000826115aa5750600161042f565b816115b75750600061042f565b81600181146115cd57600281146115d7576115f3565b600191505061042f565b60ff8411156115e8576115e86114c0565b50506001821b61042f565b5060208310610133831016604e8410600b8410161715611616575081810a61042f565b6116208383611558565b8060001904821115611634576116346114c0565b029392505050565b6000610ead838361159b565b6000816000190483118215151615611662576116626114c0565b500290565b60006020828403121561167957600080fd5b8151610ead816112ee565b600082821015611696576116966114c0565b500390565b600082198211156116ae576116ae6114c0565b500190565b634e487b7160e01b600052604160045260246000fd5b634e487b7160e01b600052603260045260246000fd5b6000816116ee576116ee6114c0565b506000190190565b600060ff821660ff841680821015611710576117106114c0565b90039392505050565b8183823760009101908152919050565b60008083128015600160ff1b850184121615611747576117476114c0565b6001600160ff1b0384018313811615611762576117626114c0565b50500390565b60005b8381101561178357818101518382015260200161176b565b83811115611792576000848401525b50505050565b7f416363657373436f6e74726f6c3a206163636f756e74200000000000000000008152600083516117d0816017850160208801611768565b7001034b99036b4b9b9b4b733903937b6329607d1b6017918401918201528351611801816028840160208801611768565b01602801949350505050565b602081526000825180602084015261182c816040850160208701611768565b601f01601f1916919091016040019291505056feb19546dff01e856fb3f010c267a7b1c60363cf8a4664e21cc89c26224620214ea26469706673582212207fc9b2f608ff524ca64e6022d4931090754f68ff7466a75a3fcccce18bd70deb64736f6c634300080e0033b19546dff01e856fb3f010c267a7b1c60363cf8a4664e21cc89c26224620214ea49807205ce4d355092ef5a8a18f56e8913cf4a201fbe287825b095693c217750000000000000000000000001111111254760f7ab3f16433eea9304126dcd199000000000000000000000000252ea7e68a27390ce0d53851192839a39ab8b38c",
        "nonce": "0x104"
      },
      "additionalContracts": []
    },
    {
      "hash": "0x66937c83b7dc7ddd75d6afc8cd89fe2784e603d2f45bd5c5d730c4a08023f6f8",
      "transactionType": "CALL",
      "contractName": null,
      "contractAddress": "0x29E8dd7383aCC9Ac316DFc9055C177Fe748A0bE5",
      "function": null,
      "arguments": null,
      "transaction": {
        "type": "0x00",
        "from": "0x0f3bf5c241b6625c0fa781ed137fde6786b2e66f",
        "to": "0x29e8dd7383acc9ac316dfc9055c177fe748a0be5",
        "gas": "0xa43c",
        "value": "0x0",
        "data": "0xa0498ff00000000000000000000000009c54e82ef8752b8f573390a6c36893e7eaca234c",
        "nonce": "0x105"
      },
      "additionalContracts": []
    },
    {
      "hash": "0xf792742052e737bfccc3c1f84be6f0531da92db40bf22bf4e78abdae10af2552",
      "transactionType": "CALL",
      "contractName": "FeesAccumulator",
      "contractAddress": "0x9c54e82Ef8752B8f573390a6c36893e7Eaca234c",
      "function": "setFeeTransfererRole(address)",
      "arguments": [
        "0x7C84a632264cC57daf2B2FF5f8F895d139A26744"
      ],
      "transaction": {
        "type": "0x00",
        "from": "0x0f3bf5c241b6625c0fa781ed137fde6786b2e66f",
        "to": "0x9c54e82ef8752b8f573390a6c36893e7eaca234c",
        "gas": "0x125d4",
        "value": "0x0",
        "data": "0x555478330000000000000000000000007c84a632264cc57daf2b2ff5f8f895d139a26744",
        "nonce": "0x106"
      },
      "additionalContracts": []
    },
    {
      "hash": "0xeb52b6f6ed3650e120bf002c038cf423d29ef71da332b59ed5dd9ea7a1171074",
      "transactionType": "CALL",
      "contractName": "FeesAccumulator",
      "contractAddress": "0x9c54e82Ef8752B8f573390a6c36893e7Eaca234c",
      "function": "setCollateralToDexIndexForUsdl(address,uint8)",
      "arguments": [
        "0x4200000000000000000000000000000000000006",
        "0"
      ],
      "transaction": {
        "type": "0x00",
        "from": "0x0f3bf5c241b6625c0fa781ed137fde6786b2e66f",
        "to": "0x9c54e82ef8752b8f573390a6c36893e7eaca234c",
        "gas": "0xfb56",
        "value": "0x0",
        "data": "0x0fabcda500000000000000000000000042000000000000000000000000000000000000060000000000000000000000000000000000000000000000000000000000000000",
        "nonce": "0x107"
      },
      "additionalContracts": []
    },
    {
      "hash": "0x44b29ce96dbfd7ba78e1222f13847172ed2a5e6e2c408c8650fb4d015654424f",
      "transactionType": "CALL",
      "contractName": "FeesAccumulator",
      "contractAddress": "0x9c54e82Ef8752B8f573390a6c36893e7Eaca234c",
      "function": "setCollateralToDexIndexForUsdl(address,uint8)",
      "arguments": [
        "0x68f180fcCe6836688e9084f035309E29Bf0A2095",
        "0"
      ],
      "transaction": {
        "type": "0x00",
        "from": "0x0f3bf5c241b6625c0fa781ed137fde6786b2e66f",
        "to": "0x9c54e82ef8752b8f573390a6c36893e7eaca234c",
        "gas": "0xfc7f",
        "value": "0x0",
        "data": "0x0fabcda500000000000000000000000068f180fcce6836688e9084f035309e29bf0a20950000000000000000000000000000000000000000000000000000000000000000",
        "nonce": "0x108"
      },
      "additionalContracts": []
    },
    {
      "hash": "0x4de3a13bfe8770d25c3cc6b2ee47ee50f7e288d57f36304a262e4c8781049220",
      "transactionType": "CALL",
      "contractName": "FeesAccumulator",
      "contractAddress": "0x9c54e82Ef8752B8f573390a6c36893e7Eaca234c",
      "function": "setCollateralToSynth(address,address,address)",
      "arguments": [
        "0x4200000000000000000000000000000000000006",
        "0x3BC414FA971189783ACee4dEe281067C322E3412",
        "0x89c4e9a23Db43641e1B3C5E0691b100E64b50E32"
      ],
      "transaction": {
        "type": "0x00",
        "from": "0x0f3bf5c241b6625c0fa781ed137fde6786b2e66f",
        "to": "0x9c54e82ef8752b8f573390a6c36893e7eaca234c",
        "gas": "0x175f6",
        "value": "0x0",
        "data": "0x02dda60500000000000000000000000042000000000000000000000000000000000000060000000000000000000000003bc414fa971189783acee4dee281067c322e341200000000000000000000000089c4e9a23db43641e1b3c5e0691b100e64b50e32",
        "nonce": "0x109"
      },
      "additionalContracts": []
    },
    {
      "hash": "0x9c32336e22df92fac1f32d723b45bef8a6d930eba27f5cb34428267c7e53f02b",
      "transactionType": "CALL",
      "contractName": "FeesAccumulator",
      "contractAddress": "0x9c54e82Ef8752B8f573390a6c36893e7Eaca234c",
      "function": "setCollateralToSynth(address,address,address)",
      "arguments": [
        "0x68f180fcCe6836688e9084f035309E29Bf0A2095",
        "0x8A641696Caf0f59bB7a53CF8D2dc943ED95229A6",
        "0x7D39583e262CBe75a1D698A6D79cd5a2958cb61d"
      ],
      "transaction": {
        "type": "0x00",
        "from": "0x0f3bf5c241b6625c0fa781ed137fde6786b2e66f",
        "to": "0x9c54e82ef8752b8f573390a6c36893e7eaca234c",
        "gas": "0x17721",
        "value": "0x0",
        "data": "0x02dda60500000000000000000000000068f180fcce6836688e9084f035309e29bf0a20950000000000000000000000008a641696caf0f59bb7a53cf8d2dc943ed95229a60000000000000000000000007d39583e262cbe75a1d698a6d79cd5a2958cb61d",
        "nonce": "0x10a"
      },
      "additionalContracts": []
    }
  ],
  "receipts": [
    {
      "transactionHash": "0xee611e82bffd1d11b6d73d5676fd5630ce11ef11a67181847c142fe9da6d6dc6",
      "transactionIndex": "0x0",
      "blockHash": "0x1026c94d5a1f79f25986eb0d1417a23ecf4b0d65f67b6c906e64c206151dd943",
      "blockNumber": "0x1b828f0",
      "from": "0x0f3BF5c241B6625C0fA781ED137fDe6786b2e66f",
      "to": null,
      "cumulativeGasUsed": "0x18b76e",
      "gasUsed": "0x18b76e",
      "contractAddress": "0x9c54e82Ef8752B8f573390a6c36893e7Eaca234c",
      "logs": [
        {
          "address": "0x9c54e82Ef8752B8f573390a6c36893e7Eaca234c",
          "topics": [
            "0xbd79b86ffe0ab8e8776151514217cd7cacd52c909f66475c3af44e129f0b00ff",
            "0xb19546dff01e856fb3f010c267a7b1c60363cf8a4664e21cc89c26224620214e",
            "0x0000000000000000000000000000000000000000000000000000000000000000",
            "0xa49807205ce4d355092ef5a8a18f56e8913cf4a201fbe287825b095693c21775"
          ],
          "data": "0x",
          "blockHash": "0x1026c94d5a1f79f25986eb0d1417a23ecf4b0d65f67b6c906e64c206151dd943",
          "blockNumber": "0x1b828f0",
          "transactionHash": "0xee611e82bffd1d11b6d73d5676fd5630ce11ef11a67181847c142fe9da6d6dc6",
          "transactionIndex": "0x0",
          "logIndex": "0x0",
          "removed": false
        },
        {
          "address": "0x9c54e82Ef8752B8f573390a6c36893e7Eaca234c",
          "topics": [
            "0xbd79b86ffe0ab8e8776151514217cd7cacd52c909f66475c3af44e129f0b00ff",
            "0xd8642e325ff063c2569dc38c8c7b3ded13200dfc2e08ea8505cf844ddec6fd7f",
            "0x0000000000000000000000000000000000000000000000000000000000000000",
            "0xb19546dff01e856fb3f010c267a7b1c60363cf8a4664e21cc89c26224620214e"
          ],
          "data": "0x",
          "blockHash": "0x1026c94d5a1f79f25986eb0d1417a23ecf4b0d65f67b6c906e64c206151dd943",
          "blockNumber": "0x1b828f0",
          "transactionHash": "0xee611e82bffd1d11b6d73d5676fd5630ce11ef11a67181847c142fe9da6d6dc6",
          "transactionIndex": "0x0",
          "logIndex": "0x1",
          "removed": false
        },
        {
          "address": "0x9c54e82Ef8752B8f573390a6c36893e7Eaca234c",
          "topics": [
            "0x2f8788117e7eff1d82e926ec794901d17c78024a50270940304540a733656f0d",
            "0xa49807205ce4d355092ef5a8a18f56e8913cf4a201fbe287825b095693c21775",
            "0x0000000000000000000000000f3bf5c241b6625c0fa781ed137fde6786b2e66f",
            "0x0000000000000000000000000f3bf5c241b6625c0fa781ed137fde6786b2e66f"
          ],
          "data": "0x",
          "blockHash": "0x1026c94d5a1f79f25986eb0d1417a23ecf4b0d65f67b6c906e64c206151dd943",
          "blockNumber": "0x1b828f0",
          "transactionHash": "0xee611e82bffd1d11b6d73d5676fd5630ce11ef11a67181847c142fe9da6d6dc6",
          "transactionIndex": "0x0",
          "logIndex": "0x2",
          "removed": false
        },
        {
          "address": "0x9c54e82Ef8752B8f573390a6c36893e7Eaca234c",
          "topics": [
            "0x2f8788117e7eff1d82e926ec794901d17c78024a50270940304540a733656f0d",
            "0xb19546dff01e856fb3f010c267a7b1c60363cf8a4664e21cc89c26224620214e",
            "0x0000000000000000000000000f3bf5c241b6625c0fa781ed137fde6786b2e66f",
            "0x0000000000000000000000000f3bf5c241b6625c0fa781ed137fde6786b2e66f"
          ],
          "data": "0x",
          "blockHash": "0x1026c94d5a1f79f25986eb0d1417a23ecf4b0d65f67b6c906e64c206151dd943",
          "blockNumber": "0x1b828f0",
          "transactionHash": "0xee611e82bffd1d11b6d73d5676fd5630ce11ef11a67181847c142fe9da6d6dc6",
          "transactionIndex": "0x0",
          "logIndex": "0x3",
          "removed": false
        }
      ],
      "status": "0x1",
      "logsBloom": "0x00000004000000000800000000000000080080000000000000000000080000000000000000000000000000000000000000000000000000040000000000000000000000000000000000000000000000000000000020000000000001000800000000000000020000400000000000000800000000000000000800000000000000000000000000000000000000000100004000000000000000000000000000000000002000000000000000000200000000000000000000000000001000000000080000000000000000000000000000000000000000000000000900000000000020000000000000000000000800000000001000000000000000000000000000000000"
    },
    {
      "transactionHash": "0x66937c83b7dc7ddd75d6afc8cd89fe2784e603d2f45bd5c5d730c4a08023f6f8",
      "transactionIndex": "0x0",
      "blockHash": "0x0b9d37ef868c787c2e58c36a6043e5bcb32754ae419184045f04e69ec516cf55",
      "blockNumber": "0x1b828fb",
      "from": "0x0f3BF5c241B6625C0fA781ED137fDe6786b2e66f",
      "to": "0x29E8dd7383aCC9Ac316DFc9055C177Fe748A0bE5",
      "cumulativeGasUsed": "0x76e8",
      "gasUsed": "0x76e8",
      "contractAddress": null,
      "logs": [
        {
          "address": "0x29E8dd7383aCC9Ac316DFc9055C177Fe748A0bE5",
          "topics": [
            "0xf63b8135af572e3a5fb6077a33b95dd795eab255f3749f3a9c4a5e9b08a51021"
          ],
          "data": "0x0000000000000000000000009c54e82ef8752b8f573390a6c36893e7eaca234c",
          "blockHash": "0x0b9d37ef868c787c2e58c36a6043e5bcb32754ae419184045f04e69ec516cf55",
          "blockNumber": "0x1b828fb",
          "transactionHash": "0x66937c83b7dc7ddd75d6afc8cd89fe2784e603d2f45bd5c5d730c4a08023f6f8",
          "transactionIndex": "0x0",
          "logIndex": "0x0",
          "removed": false
        }
      ],
      "status": "0x1",
      "logsBloom": "0x00000000000000000000000000000000000000080000008000000000000000000000000000040000000000000000000000000000000000000000000000000000000000000000000000000000800000000000200000000000000000000000000000000000000000040000000000000000000000000000000000000000000000000000000000000000000000000000000000000000000000000000000000000000000000000000000000000000000000000000000000000000000000000000000000000000000000000000000000000000000000000000000000000000000000000000000000000000000000000000000000000000000000000000000000000000"
    },
    {
      "transactionHash": "0xf792742052e737bfccc3c1f84be6f0531da92db40bf22bf4e78abdae10af2552",
      "transactionIndex": "0x0",
      "blockHash": "0x8f7abce7686cc058251d0c59a56ba7e05818a418541638297f4988b0d21a8214",
      "blockNumber": "0x1b8290d",
      "from": "0x0f3BF5c241B6625C0fA781ED137fDe6786b2e66f",
      "to": "0x9c54e82Ef8752B8f573390a6c36893e7Eaca234c",
      "cumulativeGasUsed": "0xc8e9",
      "gasUsed": "0xc8e9",
      "contractAddress": null,
      "logs": [
        {
          "address": "0x9c54e82Ef8752B8f573390a6c36893e7Eaca234c",
          "topics": [
            "0x2f8788117e7eff1d82e926ec794901d17c78024a50270940304540a733656f0d",
            "0xd8642e325ff063c2569dc38c8c7b3ded13200dfc2e08ea8505cf844ddec6fd7f",
            "0x0000000000000000000000007c84a632264cc57daf2b2ff5f8f895d139a26744",
            "0x0000000000000000000000000f3bf5c241b6625c0fa781ed137fde6786b2e66f"
          ],
          "data": "0x",
          "blockHash": "0x8f7abce7686cc058251d0c59a56ba7e05818a418541638297f4988b0d21a8214",
          "blockNumber": "0x1b8290d",
          "transactionHash": "0xf792742052e737bfccc3c1f84be6f0531da92db40bf22bf4e78abdae10af2552",
          "transactionIndex": "0x0",
          "logIndex": "0x0",
          "removed": false
        }
      ],
      "status": "0x1",
      "logsBloom": "0x00000004000000000000000000000000000000000000000000000000080000000000000000000000000000000000000000000000008000040000000000000000000000000000000000000000000000000000000000000000000001000800000000000000000000000000000000000000000000000000000000000000000000000000000000000000000000000100000000000000000000000000000000000000000000000000000000000200000000000000000400000000001000000000080000000000000000000000000000000000000000000000000900000000000000000000000000000000000800000000000000000000000000000000000000000000"
    },
    {
      "transactionHash": "0xeb52b6f6ed3650e120bf002c038cf423d29ef71da332b59ed5dd9ea7a1171074",
      "transactionIndex": "0x0",
      "blockHash": "0x783e57b318700b26676632c89b3bc26099b6b7aae3f5fba8c6b6b2b09e5e43c5",
      "blockNumber": "0x1b8291e",
      "from": "0x0f3BF5c241B6625C0fA781ED137fDe6786b2e66f",
      "to": "0x9c54e82Ef8752B8f573390a6c36893e7Eaca234c",
      "cumulativeGasUsed": "0xb5f7",
      "gasUsed": "0xb5f7",
      "contractAddress": null,
      "logs": [],
      "status": "0x1",
      "logsBloom": "0x00000000000000000000000000000000000000000000000000000000000000000000000000000000000000000000000000000000000000000000000000000000000000000000000000000000000000000000000000000000000000000000000000000000000000000000000000000000000000000000000000000000000000000000000000000000000000000000000000000000000000000000000000000000000000000000000000000000000000000000000000000000000000000000000000000000000000000000000000000000000000000000000000000000000000000000000000000000000000000000000000000000000000000000000000000000"
    },
    {
      "transactionHash": "0x44b29ce96dbfd7ba78e1222f13847172ed2a5e6e2c408c8650fb4d015654424f",
      "transactionIndex": "0x0",
      "blockHash": "0x9aca60b83e2321b6fe5a5b2923c250dce58f4a13908cba9531fe4db9b6ca93b2",
      "blockNumber": "0x1b82936",
      "from": "0x0f3BF5c241B6625C0fA781ED137fDe6786b2e66f",
      "to": "0x9c54e82Ef8752B8f573390a6c36893e7Eaca234c",
      "cumulativeGasUsed": "0xb6cf",
      "gasUsed": "0xb6cf",
      "contractAddress": null,
      "logs": [],
      "status": "0x1",
      "logsBloom": "0x00000000000000000000000000000000000000000000000000000000000000000000000000000000000000000000000000000000000000000000000000000000000000000000000000000000000000000000000000000000000000000000000000000000000000000000000000000000000000000000000000000000000000000000000000000000000000000000000000000000000000000000000000000000000000000000000000000000000000000000000000000000000000000000000000000000000000000000000000000000000000000000000000000000000000000000000000000000000000000000000000000000000000000000000000000000"
    },
    {
      "transactionHash": "0x4de3a13bfe8770d25c3cc6b2ee47ee50f7e288d57f36304a262e4c8781049220",
      "transactionIndex": "0x0",
      "blockHash": "0x43d8898ab6b7630774717df6a964ca034e335ef436259b4cb231aebc139a3f2e",
      "blockNumber": "0x1b82947",
      "from": "0x0f3BF5c241B6625C0fA781ED137fDe6786b2e66f",
      "to": "0x9c54e82Ef8752B8f573390a6c36893e7Eaca234c",
      "cumulativeGasUsed": "0x10ebf",
      "gasUsed": "0x10ebf",
      "contractAddress": null,
      "logs": [],
      "status": "0x1",
      "logsBloom": "0x00000000000000000000000000000000000000000000000000000000000000000000000000000000000000000000000000000000000000000000000000000000000000000000000000000000000000000000000000000000000000000000000000000000000000000000000000000000000000000000000000000000000000000000000000000000000000000000000000000000000000000000000000000000000000000000000000000000000000000000000000000000000000000000000000000000000000000000000000000000000000000000000000000000000000000000000000000000000000000000000000000000000000000000000000000000"
    },
    {
      "transactionHash": "0x9c32336e22df92fac1f32d723b45bef8a6d930eba27f5cb34428267c7e53f02b",
      "transactionIndex": "0x0",
      "blockHash": "0xdf2b4ec415a6bb3ef199d80916598481ee32ff3a6d1b77583ca2aaccc84b6647",
      "blockNumber": "0x1b82956",
      "from": "0x0f3BF5c241B6625C0fA781ED137fDe6786b2e66f",
      "to": "0x9c54e82Ef8752B8f573390a6c36893e7Eaca234c",
      "cumulativeGasUsed": "0x10f97",
      "gasUsed": "0x10f97",
      "contractAddress": null,
      "logs": [],
      "status": "0x1",
      "logsBloom": "0x00000000000000000000000000000000000000000000000000000000000000000000000000000000000000000000000000000000000000000000000000000000000000000000000000000000000000000000000000000000000000000000000000000000000000000000000000000000000000000000000000000000000000000000000000000000000000000000000000000000000000000000000000000000000000000000000000000000000000000000000000000000000000000000000000000000000000000000000000000000000000000000000000000000000000000000000000000000000000000000000000000000000000000000000000000000"
    }
  ],
  "libraries": [],
  "pending": [],
  "path": "/Users/safu/dev/lemma/lemma-finance/lemmaswap/broadcast/FeeDistributorDeply.sol/10/run-latest.json",
  "returns": {},
  "timestamp": 1665574761,
  "commit": "4808b96"
}